:10000000700A0020910B0000DB090000DF090000EE
:1000100000000000000000000000000000000000E0
:10002000000000000000000000000000530B000072
:1000300000000000000000005F0B0000AD0B00009E
:10004000430A0000AF0B0000B10B0000B30B00002F
:10005000E1090000B50B0000B70B0000B90B000070
:10006000BB0B0000BD0B0000BF0B0000C10B00006C
:10007000C30B0000C50B0000C70B0000C90B00003C
:10008000CB0B0000CD0B0000CF0B0000D10B00000C
:10009000D30B0000D50B0000D70B0000D90B0000DC
:1000A000DB0B0000DD0B0000DF0B0000E10B0000AC
:1000B000E30B0000E50B0000E70B0000E90B00007C
:1000C00000B5010049B2002905D40121C006C00EC7
:1000D0008140BA48016000BD00B5010049B2002965
:1000E00005D40121C006C00E8140CA48016000BD90
:1000F000F0B5020052B2002A1BD403228B4B04003D
:1001000064B2A40804256C431C59FF251600064060
:1001100008277E43B540AC438901C9B20240082597
:100120006A439140214340B2800804225043195051
:1001300022E00F24B84A032305006DB22540083D94
:10014000AD0804267543060076B23440083CA40886
:10015000042674431659FF27BC461C000440082798
:100160007C436746A740BE438901C9B203400820CB
:100170004343994031435151F0BDF8B5002001008F
:100180006B4A80239B0413606A4B1C6880256D00BA
:1001900025431D600424684D2C60684C256870263A
:1001A000B5432560256850262E432660256808261D
:1001B0002E4326600224824D2C601D6820262E438B
:1001C0001E60804D804E3560804D2E68370CBC46D9
:1001D0002E68F743BEB26746B74201D12D6800E0F2
:1001E0008025EDB27A4E35607A4D2E68370CBC46CC
:1001F0002E68F743BEB26746B74201D12D6800E0D2
:100200008025EDB2854E35601D6880262E431E6028
:10021000A0239B00824D2B60824B1860824B18609C
:1002200080239B03814D2B60814B1860814B824D55
:100230002B60824B0025ED431D60814E3560814F60
:100240003D601860306038607B4B18607E4B1D68E5
:1002500018262E431E607D4B1D6810262E431E60FF
:100260007B4D2E688027FF0037432F601D681026C6
:10027000B5431D606A4B1B68F0252D031D43684B79
:100280001D60744B744D1D6000E0491C1D682540C5
:10029000002D02D1984DA942F7D3974B99422FD206
:1002A0009649974B0B6000E0401C0B681B0603D47B
:1002B000FA235B019842F7D39A490C60FA2149016D
:1002C00088421DD210689849014011601068A02131
:1002D000C90001431160106807218843106010684D
:1002E00020431060B74801680C4304601F20FFF7EB
:1002F000F3FE00211F20FFF7FBFE1F20FFF7E0FEAB
:1003000062B6F1BD30B40B490A68202313430B6079
:100310002D492C4A0A60B24B1C680725AC431C606F
:100320001C68204318600A6030BC704700E400E09D
:10033000002400403424004010A8014000A80140DF
:1003400030B50020010041490A6880235B00134357
:100350000B607F490A68E0239A430A600A686023B9
:1003600013430B6001227B490B6813430B607A49EE
:100370000B680124A3430B60784B1C688A4D254011
:100380001D600B6813430B60884B1C6822431A6086
:1003900010238D4C22681A40401C924DA84201D077
:1003A000002AF5D0102A04D1236008680122904366
:1003B000086009208C49086030BD000000E100E0C1
:1003C00004A801405A5A34120014014040FDFF1F96
:1003D0000824004020FDFF1F30B5002319001A003B
:1003E000794A01231360814C20605B4804681C43F8
:1003F0000460046802252543056010681840491C04
:10040000784CA14201D00028F7D01360BA480068A8
:1004100080B230BD80E100E01CED00E0142400401B
:100420000C0C00404C0C00408C0C0040CC0C0040EC
:100430000C0D0040DF9B5713142800401828004083
:100440001C28004020280040040C004038240040B4
:100450003C0400402024004001EA000030B50100C7
:100460008020634A13680343136080239B00614C20
:1004700025681D432560604C236013681843106095
:100480005E480268A0239B05134303605C48026832
:10049000E0239B05134303605A4800F047FA401ECF
:1004A0005949086059480168C022914301600168B8
:1004B00040220A4302600168904A0A4002600168D3
:1004C00001600168302291430160016801608C4A3B
:1004D00080235B001360022111609F4A146823434C
:1004E000136013680B431360026801231343036016
:1004F00002681143016030BD80BB00000C24004045
:10050000133807003A48016880220A430260934882
:1005100001688022D2000A430260016830220A4347
:100520000260704730240040FFF8FFFF00B58C499F
:100530008C4A0B88D0540888401C08800888FF2803
:1005400001D900200880AB480168491C016000BD4A
:1005500014AC01405020004008AC014018AC0140F0
:1005600070B502001F4800231C0000E0641C250039
:100570000E00ADB2B6B2B54214D22500ADB2555D93
:1005800068401D002E00F6B2082EEFDAC60702D42E
:1005900080B2400804E00600B6B27608C248704057
:1005A0006D1CEFE780B270BDFFFFFEFF10AC014095
:1005B00016480168022291430160016801220A4342
:1005C000026070472C24004000AC01400F480168D5
:1005D000012291430160016802220A4302607047D0
:1005E00004140140FFFF00001CAC014020AC01409E
:1005F000342400403C2400404C2400404C0C00407B
:10060000600C004000127A001820014000200140D8
:10061000F8B5FFE73A480068C0056BD5A348046801
:100620002000C0B2FFF782FFB248017800290BD149
:100630002100C9B2B229EDD10121017000210A00C7
:10064000AD4B1A80AD4A1180AB4A118864292ED275
:10065000AB491388CC5413885B1C13801388032B7D
:1006600010D18C78A54BE4B2641D1C801C88652CCD
:1006700008D30024250005702500158025001D8065
:10068000A04B1C709D4B1C88002CC3D014881D8867
:10069000AC42BFD31288584C2280574A1288652A30
:1006A00002D36422544C22800022140012E0002164
:1006B0000B000370080010800800904A10809148D9
:1006C0000170A7E72500ADB24D5D274E2700BFB2F0
:1006D000F555641C2500484E3688ADB2B542F1D3BD
:1006E00046490C68641C0C600121864C2170110085
:1006F00001701A80F1BD000028AC0140FFFEFFFF31
:100700000820014038B580480178002908D122E04E
:100710007E4A0B88D25C7E4B1A600A88521C0A8083
:100720007C4A1168890705D57B490B887B4C248856
:10073000A342EDD37949784B1C880D88AC420AD38B
:100740001268D20707D50022140004701000088038
:100750001A80FFF73BFF31BD04200140CC0C004064
:10076000600200201C00002080010020FEB5664FC2
:100770003B78002B3DD16B461A706A461478641D95
:10078000220092B2112A34D20200604DB2202870A9
:10079000681C02706A461278AA7000263200019125
:1007A00008E001991300DBB2C95C1300DBB2EB185F
:1007B000D970521C11006B461B78C9B29942F0D314
:1007C00069460978891C89B2FFF7CAFE010089B21F
:1007D000090A6A461278AA18D17069460978691818
:1007E0000871FFF7E5FE4D4804804B480680012064
:1007F0003870F7BD58020020620200205C02002021
:10080000F8B54048017800294CD00024210001703F
:100810003B4D687869460870AF783800C0B2401D1B
:10082000010089B2652905D233490988020092B2D4
:10083000914202D23048048034E0010089B2691844
:10084000491E0978C9B280B22818801E00780602B5
:100850000E433900C9B2891C89B2681CFFF780FEBB
:10086000B6B280B2864202D0234804801AE06846BD
:100870000078022814D1FFB2002F11D0E878802030
:100880004000FFF7A9FD694601220A7002004A7084
:1008900080B2000A8870032269460220FFF766FFD3
:1008A00015480480F1BD0000211000001020014017
:1008B00080B5FFF7ADFEFFF7A3FFFFF723FF01BDF4
:1008C00080B5FFF75AFC0320FFF71CFDFFF738FD4A
:1008D000FFF718FE1248016820220A4302609620A2
:1008E0008001FFF7BBFD0F480F490860FFF7E0FFED
:1008F000F9E700006D020020640200206A02002077
:10090000E40100206E0200206C020020480200205A
:1009100014200140082001406802002066020020E7
:10092000D00C00405A5A3412001401400022030A2D
:100930008B420BD203098B4219D243088B422ED231
:10094000411A00D20146524110467047FF22090267
:100950003FD012068B4205D3121209028B4201D3FB
:100960001212090203098B4219D300E0090AC309D4
:100970008B4201D3CB01C01A524183098B4201D370
:100980008B01C01A524143098B4201D34B01C01A5B
:10099000524103098B4201D30B01C01A5241C308D3
:1009A0008B4201D3CB00C01A524183088B4201D342
:1009B0008B00C01A524143088B4201D34B00C01A2E
:1009C0005241884200D3401A5241CFD201461046CC
:1009D000704708B500F002F808BDFEE77047FEE773
:1009E00010B51D480168C9050DD51C498A898B7B46
:1009F0009BB29A4224D31A4A12688B688C7B1A5590
:100A00008A7B521C8A730068800719D51348817944
:100A1000828889B2914204D201688279895C114A44
:100A200011608179828889B2914206D10021817159
:100A30000D490A6802239A430A608179491C817131
:100A400010BD00B5012009490A680240002A02D001
:100A50000A681043086000BD082001400C00002017
:100A600010A001401420014004200140B43C01408A
:100A700070B40123002413E00168001D194202D064
:100A80004D466D1E49190C60091D121F042AFAD229
:100A90000D00960701D50C80AD1C1A4000D02C70BB
:100AA0000268001D002AE7D170BC704730B40122F3
:100AB0000168001D00290FD00368C318446808307E
:100AC000144202D04D466D1E64191D6825601B1D21
:100AD000241D091FECD0F8E730BC704710B507495A
:100AE00079441831064C7C44163404E0081D0A6829
:100AF000891888470100A142F8D110BD0800000004
:100B0000280000006DFFFFFF540200001C000020C1
:100B10000000000099FFFFFF1C00000058000000CB
:100B2000000000200000000000F00DF8002801D0B7
:100B3000FFF7D4FF00BF00BF002000BF00BFFFF7DA
:100B4000BFFE00F002F80120704780B500F002F807
:100B500001BDFEE70746384600F002F8FBE7FEE776
:100B600080B500BF00BF024A11001820ABBEFBE7F2
:100B700026000200112233445566778899AA0000A6
:100B8000000000200A0000001C010020640000009A
:100B90000148804701480047EB0B0000A10B000013
:100BA00000BF00BF00BF00BFFFF7BEFFFEE7FEE7CC
:100BB000FEE7FEE7FEE7FEE7FEE7FEE7FEE7FEE70D
:100BC000FEE7FEE7FEE7FEE7FEE7FEE7FEE7FEE7FD
:100BD000FEE7FEE7FEE7FEE7FEE7FEE7FEE7FEE7ED
:0C0BE000FEE7FEE7FEE7FEE7FEE77047D9
:0400000500000BA14B
:00000001FF
